:100000000C9434000C9451000C9451000C94510049
:100010000C9451000C9451000C9451000C94CA00A3
:100020000C9451000C9451000C9451000C9451000C
:100030000C9451000C9451000C9451000C945100FC
:100040000C9451000C9451000C9451000C945100EC
:100050000C9451000C9451000C9451000C945100DC
:100060000C9451000C94510011241FBECFEFD8E026
:10007000DEBFCDBF15E0A0E0B1E0E2ECF7E002C0EA
:1000800005900D92AA34B107D9F725E0AAE4B5E0AE
:1000900001C01D92AA35B207E1F70E947E010C94BF
:1000A000DF030C9400002A9890639EBD0DB407FEF8
:1000B000FDCF8EBD0DB407FEFDCF2A9A089584B101
:1000C0008C6284B985B1837D85B980E58CBD8DB5A1
:1000D0008DBD08951092C1008AB187608AB98BB135
:1000E00088618BB9569A08952BB1982F9095292342
:1000F0002BB92AB1282B2AB9000000002AB12923E4
:100100002AB92BB1282B2BB9000000002BB1922368
:100110009BB99AB1892B8AB908959BB1282F209554
:1001200092239BB99AB1982B9AB900000000F894D9
:100130009AB192239AB99BB1982B9BB990E09613F0
:1001400002C081E0089529B1282319F0789480E055
:1001500008959F5FF4CFE0EBF0E0808182608083C0
:10016000E0E7F0E08081826080838FE48093B300D9
:100170007894E1EBF0E080818260808308955E985E
:10018000569A86E987BD84B5836C84BD85B5826047
:1001900085BD08950F920FB60F921F9211242F93D1
:1001A0003F934F935F936F937F938F939F93EF93BF
:1001B000FF9380914A05882309F497C02A9880917B
:1001C000500580638EBD40914F0550915005CA0186
:1001D000992790934C0580934B05809100018111E4
:1001E00051C08091010190E0880F991FFC01EE5CE5
:1001F000FE4F20813181240F351F3093500520930D
:100200004F05865E9E4FFC018081918160914D0576
:1002100070914E05860F971F90934E0580934D0564
:100220000B9754F02F5F3F4F3093500520934F05AD
:1002300010924E0510924D050DB407FEFDCF4EBD38
:100240008091000181112FC080915105909152053C
:1002500001969093520580935105E0910101F0E0E1
:10026000EE0FFF1FEE5FFE4F208131812817390707
:100270004CF51092500510924F05109252051092B5
:10028000510520C08130C1F6E0915105F091520531
:10029000EE0FFF1FE65BFE4F80819181909350052A
:1002A00080934F05C9CF813069F4809151059091B9
:1002B000520501968F3F910509F0FCF69093520587
:1002C000809351050DB407FEFDCF2A9AFF91EF915F
:1002D0009F918F917F916F915F914F913F912F915E
:1002E0001F900F900FBE0F9018951092500510920E
:1002F0004F051092520510925105E8CFCDB7DEB7E9
:10030000A2970FB6F894DEBF0FBECDBF0E945F006C
:100310000E946A000E94AB006E0121E2C20ED11C55
:10032000BB24B394AE014F5F5F4F7A018A01A12CC9
:1003300057E08BB1887F5A1508F499C08A298BB988
:1003400063E088E00E948D00882309F465C0109264
:1003500000018A2D90E0D8018D939C930E5F1F4F72
:100360000C151D0521F73701EEE16E0E711C312CC5
:10037000412C512CA12C10E000E0912C812CD701B4
:100380008D919D917D01009709F04EC0BFEF8B1AB2
:100390009B0AE614F70499F7801691060CF063C0E7
:1003A00020E030E040E751E43F8E48A259A2AAA2E3
:1003B0006F8D78A189A19AA10E94BB02F62EE72E2B
:1003C000A82E992E10E000E0C801012E000CAA0B07
:1003D000BB0B8F8F98A3A9A3BAA3BC01CD010E9428
:1003E0002F032F2D3E2D4A2D592D6F8F78A389A3D2
:1003F0009AA36F8D78A189A19AA10E94B60287FF66
:1004000005C000930101B0924A055E980F5F1F4F2F
:100410000D301105C9F686CFD8011D921C92A39408
:10042000BDE0AB1285CF9ACF0F5F1F4F9C01990F94
:10043000440B550B2F8F38A349A35AA3CA01B90106
:100440000E942F039B01AC013F8E48A259A2AAA291
:100450006F8D78A189A19AA10E944A02362E472E5B
:10046000582EA92E96CF10924A055E9A5BCF9A2DF0
:100470009770892B8BB963E080E10E948D008823FF
:1004800059F28A2D90E0F801918380831092000147
:1004900065CF5058BB27AA270E9461020C94A50380
:1004A0000E94970338F00E949E0320F039F49F3F8A
:1004B00019F426F40C9494030EF4E095E7FB0C94E5
:1004C0008E03E92F0E94B60358F3BA176207730729
:1004D0008407950720F079F4A6F50C94D8030EF460
:1004E000E0950B2EBA2FA02D0B01B90190010C0144
:1004F000CA01A0011124FF27591B99F0593F50F45C
:10050000503E68F11A16F040A22F232F342F4427B3
:10051000585FF3CF469537952795A795F0405395AB
:10052000C9F77EF41F16BA0B620B730B840BBAF07B
:100530009150A1F0FF0FBB1F661F771F881FC2F7E6
:100540000EC0BA0F621F731F841F48F487957795FA
:100550006795B795F7959E3F08F0B0CF9395880FB4
:1005600008F09927EE0F9795879508950E946A03E2
:1005700008F481E008950E94CF020C94A5030E9424
:100580009E0358F00E94970340F029F45F3F29F042
:100590000C948E0351110C94D9030C9494030E9473
:1005A000B60368F39923B1F3552391F3951B550BCB
:1005B000BB27AA2762177307840738F09F5F5F4F36
:1005C000220F331F441FAA1FA9F335D00E2E3AF075
:1005D000E0E832D091505040E695001CCAF72BD08D
:1005E000FE2F29D0660F771F881FBB1F26173707DE
:1005F0004807AB07B0E809F0BB0B802DBF01FF2710
:1006000093585F4F3AF09E3F510578F00C948E035B
:100610000C94D9035F3FE4F3983ED4F38695779525
:100620006795B795F7959F5FC9F7880F911D9695C8
:10063000879597F90895E1E0660F771F881FBB1F24
:10064000621773078407BA0720F0621B730B840BD1
:10065000BA0BEE1F88F7E0950895E89409C097FB60
:100660003EF490958095709561957F4F8F4F9F4F89
:100670009923A9F0F92F96E9BB279395F6958795CD
:1006800077956795B795F111F8CFFAF4BB0F11F490
:1006900060FF1BC06F5F7F4F8F4F9F4F16C0882337
:1006A00011F096E911C0772321F09EE8872F762F6D
:1006B00005C0662371F096E8862F70E060E02AF0AE
:1006C0009A95660F771F881FDAF7880F969587959A
:1006D00097F90895990F0008550FAA0BE0E8FEEF6F
:1006E00016161706E807F907C0F012161306E407F6
:1006F000F50798F0621B730B840B950B39F40A26EF
:1007000061F0232B242B252B21F408950A2609F4CC
:10071000A140A6958FEF811D811D089597F99F67D0
:1007200080E870E060E008959FEF80EC0895002479
:100730000A941616170618060906089500240A9446
:1007400012161306140605060895092E0394000CCC
:1007500011F4882352F0BB0F40F4BF2B11F460FF5B
:1007600004C06F5F7F4F8F4F9F4F089557FD905884
:10077000440F551F59F05F3F71F04795880F97FB65
:10078000991F61F09F3F79F087950895121613061F
:100790001406551FF2CF4695F1DF08C0161617064E
:1007A0001806991FF1CF8695710561050894089583
:1007B000E894BB2766277727CB0197F90895F8942B
:0207C000FFCF69
:1007C2000108EB00DE00D100C600BB00B000A600AD
:1007D2009D0094008B0084007C000700020008004A
:1007E20003000000060003000000080007000500E7
:1007F20004000800090009000A000B000B000C00AD
:100802000D000D000E000F0010000000FF0FFF0F83
:10081200FF0FFF0FFF0FFF0FFF0FFF0FFF0FFF0F66
:10082200FF0FFF0FFF0FFF0FFF0FFF0FFF0FFF0F56
:10083200FF0FFF0FFF0FFF0FFF0FFF0FFF0FFF0F46
:10084200FF0FFF0FFF0FFF0FFF0FFF0FFF0FFF0F36
:10085200FF0FFF0FFF0FFF0FFF0FFF0FFF0FFF0F26
:10086200FF0FFF0FFF0FFF0FFF0FFF0FFF0FFF0F16
:10087200FF0FFF0FFF0FFF0FFF0FFF0FFF0FFF0F06
:10088200FF0FFF0FFF0FFF0FFF0FFF0FFF0FFF0FF6
:10089200FF0FFF0FFF0FFF0FFF0FFF0FFF0FFF0FE6
:1008A200FF0FFF0FFF0FFF0FFF0FFF0FFF0FFF0FD6
:1008B200FF0FFF0FFF0FFF0FFF0FFF0FFF0FFF0FC6
:1008C200FF0FFF0FFF0FFF0FFF0FFF0FFF0FFF0FB6
:1008D200FF0FFF0FFF0FFF0FFF0FFF0FFF0FFF0FA6
:1008E200FF0FFF0FFF0FFF0FFF0FFF0FFF0FFF0F96
:1008F200FF0FFF0FFF0FFF0FFF0FFF0FFF0FFF0F86
:10090200FF0FFF0FFF0FFF0FFF0F0000000000009F
:1009120000000000000000000000000000000000D5
:1009220000000000000000000000000000000000C5
:1009320000000000000000000000000000000000B5
:1009420000000000000000000000000000000000A5
:100952000000000000000000000000000000000095
:100962000000000000000000000000000000000085
:100972000000000000000000000000000000000075
:100982000000000000000000000000000000000065
:100992000000000000000000000000000000000055
:1009A2000000000000000000000000000000000045
:1009B2000000000000000000000000000000000035
:1009C2000000000000000000000000000000000025
:1009D2000000000000000000000000000000000015
:1009E2000000000000000000000000000000000005
:1009F20000000000000000000000000000000000F5
:100A02000000000000000000000000083208640836
:100A12009708C908FB082D095F099009C209F30963
:100A2200240A540A840AB40AE30A120B400B6E0B1E
:100A32009B0BC80BF40B200C4B0C750C9E0CC70CBB
:100A4200EF0C170D3D0D630D880DAC0DCF0DF10DA3
:100A5200120E330E520E710E8E0EAA0EC60EE00E3E
:100A6200F90E110F280F3E0F530F670F790F8B0FDF
:100A72009B0FAA0FB80FC40FD00FDA0FE30FEA0FC4
:100A8200F10FF60FFA0FFD0FFF0FFF0FFE0FFC0F16
:100A9200F80FF40FEE0FE70FDE0FD50FCA0FBE0FE0
:100AA200B10FA20F930F820F700F5D0F490F330F1B
:100AB2001D0F050FED0ED30EB80E9C0E7F0E610EAC
:100AC200430E230E020EE00DBD0D9A0D750D500D55
:100AD2002A0D030DDB0CB30C8A0C600C350C0A0CCE
:100AE200DE0BB20B850B570B290BFB0ACC0A9C0AB7
:100AF2006C0A3C0A0B0ADA09A909780946091409A1
:100B0200E208B0087E084B081908E607B407810717
:100B12004F071D07EB06B906870656062506F4059C
:100B2200C3059305630533050405D604A8047A04B6
:100B32004D042104F503CA039F0375034C032403E8
:100B4200FC02D502AF028A02650242021F02FD01C7
:100B5200DC01BC019E018001630147012C011201ED
:100B6200FA00E200CC00B600A2008F007D006C000B
:100B72005D004E00410035002A00210018001100DE
:100B82000B00070003000100000000000200050046
:100B920009000E0015001C0025002F003B00470035
:100BA20055006400740086009800AC00C100D700B4
:100BB200EE0006011F013901550171018E01AD01DF
:100BC200CC01ED010E023002530277029C02C202F6
:100BD200E8021003380361038A03B403DF030B0442
:100BE200370464049104BF04ED041C054B057B0526
:100BF200AB05DB050C063D066F06A006D206040710
:0A0C0200360768079B07CD07FF07C0
:00000001FF
