:100000000C9434000C9451000C9451000C94510049
:100010000C9451000C9451000C9451000C94EC0081
:100020000C9451000C9451000C9451000C9451000C
:100030000C9451000C9451000C9451000C945100FC
:100040000C9451000C9451000C9451000C945100EC
:100050000C9451000C9451000C9451000C945100DC
:100060000C9451000C94510011241FBECFEFD8E026
:10007000DEBFCDBF1AE0A0E0B1E0EAE5FCE002C0DF
:1000800005900D92A231B107D9F72AE0A2E1BAE0BA
:1000900001C01D92A931B207E1F70E9464010C94DE
:1000A0001E060C9400002A9890639EBD0DB407FEB6
:1000B000FDCF8EBD0DB407FEFDCF2A9A089584B101
:1000C0008C6284B985B1837D85B980E58CBD8DB5A1
:1000D0008DBD0895EAE7F0E0808187688083ECE7D2
:1000E000F0E0808180628083089588B1836088B960
:1000F00085B1836185B98FEF8BB9089598B1282FA9
:100100002095922398B997B1982B97B900000000D9
:10011000F89497B1922397B998B1982B98B990E039
:10012000961302C081E0089526B1282319F078942F
:1001300080E008959F5FF4CF95B1282F20959223FA
:1001400095B994B1982B94B900000000F89494B13B
:10015000922394B995B1982B95B990E0961302C06B
:1001600081E0089523B1282319F0789480E0089560
:100170009F5FF4CF9BB1282F209592239BB99AB112
:10018000982B9AB900000000F8949AB192239AB97A
:100190009BB1982B9BB990E0961302C081E0089523
:1001A00029B1282319F0789480E008959F5FF4CF57
:1001B000E0EBF0E0808182608083E0E7F0E0808126
:1001C0008260808382E78093B3007894E1EBF0E073
:1001D00080818260808308951F920F920FB60F92E4
:1001E00011242F933F934F935F936F937F938F933C
:1001F0009F93AF93BF93EF93FF938091120A9091D7
:10020000130A0E94530081E090E09093150A8093B6
:10021000140AFF91EF91BF91AF919F918F917F91C0
:100220006F915F914F913F912F910F900FBE0F9063
:100230001F901895909100019093170A80930001E8
:1002400081E08093160A0895CF93DF9300D000D009
:10025000CDB7DEB769837A838B839C83FA0189816A
:100260009A81AB81BC814B2F552766277727DA010E
:10027000AA0FBB1FAE0FBF1F8D919C9111974F3FCF
:1002800001F112962D913C91032E000C440B550B5D
:10029000092E000CAA0BBB0B281B390B4A0B5B0B5E
:1002A00069817A818B819C810E940604892F99271C
:1002B000AA27BB270F900F900F900F90DF91CF913F
:1002C000089520813181E0CFCDB7DEB72C970FB6EE
:1002D000F894DEBF0FBECDBF1092160A0E946A00CE
:1002E0000E945F000E9475000E94D800412C512C92
:1002F000320152E0E52EAA24A394B12C7DE0372EE2
:100300001092160A2B852D3038F4E22FF0E0E05ED3
:10031000F94F64E00C942A043B853F5F3B870DC096
:1003200081E00E94BA00A1E0882309F441C190E075
:1003300080E00E941A0141E04B8742E0E412A0C134
:1003400080917900282E22942694269443E024223A
:10035000E394A8E0EA1202C022E0E22E8E2D806231
:1003600080937C0080917A00856080937A009091E0
:1003700000018091170A981731F0812CD12C1C862E
:1003800010E000E0F12C2091160A9091000180917C
:10039000170A213009F04FC098134DC08091000119
:1003A000329CF0011124E80FF11DEE0FFF1FEE0F3C
:1003B000FF1FEF5BFE4F80819181A281B381480EC8
:1003C000591E6A1E7B1ED110A6C1BD816B2F70E025
:1003D000C5010E9416049B01770F440B550B29831E
:1003E0003A834B835C83CA01B9010E94FC049B01E0
:1003F000AC017C8579831A830B83FC8269817A81C5
:100400008B819C810E945F046C87172F082FF92E27
:1004100020E030E040E85FE369831A830B83FC82CD
:1004200069817A818B819C810E948805D82ED09425
:10043000DD1CDD24DD1C8091160A811144C070E0B2
:1004400060E090E0272F362F492F582F7C85798345
:100450001A830B83FC8269817A818B819C810E9443
:10046000880587FD30C080910001329CF001112485
:10047000E80FF11DEE0FFF1FEE0FFF1FEF5BFE4FAA
:1004800080819181A281B381480E591E6A1E7B1E14
:100490005885452F50E05A87498770E060E090E02A
:1004A00080E0272F362F492F582F7C8579831A8398
:1004B0000B83FC8269817A818B819C810E948805F3
:1004C00018160CF476C1492D5C2DC301B2010E94AF
:1004D00024019C0150E040E029833A834B835C83F4
:1004E000CA01B9010E94FA04BC852B2F312F402F7D
:1004F0005F2D69837A838B839C8369817A818B8169
:100500009C810E948D0520E030E040E055E4698345
:100510007A838B839C8369817A818B819C810E9401
:100520005F0469837A838B839C8369817A818B8161
:100530009C810E94CB047093130A6093120A10925C
:10054000150A1092140ADCCE82E00E94BA00B2E0D2
:100550008823D9F181E090E00E941A0152E05B8784
:10056000ECCE84E00E94BA0023E08823D9F182E037
:1005700090E00E941A0183E08B87DFCE88E00E9422
:10058000BA0034E0882309F4C9CE83E090E00E94E9
:100590001A0194E09B87D1CE80E10E94BA0045E029
:1005A000882309F4C9CE84E090E00E941A01A5E0F6
:1005B000AB87C3CE80E20E94BA0056E0882379F26E
:1005C00085E090E00E941A01B6E0BB87B6CE80E4D9
:1005D0000E94BA00882309F451C086E090E00E948E
:1005E0001A0127E02B87A9CE80E80E94BA0098E084
:1005F000882381F287E090E00E941A0138E08ECED5
:1006000081E00E949C00A9E0882391F288E090E0BC
:100610000E941A0149E090CE82E00E949C00BAE05C
:10062000882399F289E090E00E941A015AE097CF5E
:1006300080E10E949C002BE08823A1F28AE090E0F8
:100640000E941A018BE098CF81E00E947E003CE07E
:10065000882309F463CE8BE090E00E941A019CE0AD
:1006600099CF82E00E947E008B87882309F465CEB3
:100670008CE090E00E941A011B865FCE87E07CCF61
:1006800053E0E516B1F084E0E81659F1B5E0EB1659
:10069000A1F136E0E316D9F157E0E51259CEE09129
:1006A0007900E295EF70F0E0EF5FFE4F9081988760
:1006B0004FCE8091790082958695869583708230A1
:1006C00009F49AC0813009F49CC0A1E1B4E0882308
:1006D00029F0A1E1B2E0833009F03ACE9A2ECB2E78
:1006E00037CEE0917900E295EF70F0E0EE0FFF1F5A
:1006F000EF5DFE4F20812D832BCEE0917900E295B6
:10070000EF70F0E0EF5EFE4F40814E8321CE80918E
:1007100079008F831DCE81104AC03E81632F70E027
:10072000C5010E941604CB01770FAA0BBB0B89836E
:100730009A83AB83BC83BC01CD010E94FC049B0166
:10074000AC017C8579831A830B83FC8269817A8171
:100750008B819C810E945E046C87172F082FF92ED5
:1007600081E09F819F3F08F480E0282F30E050E037
:1007700040E029833A834B835C83CA01B9010E941C
:10078000FC0488248394BC852B2F312F402F5F2DB0
:1007900069837A838B839C8369817A818B819C8135
:1007A0000E94880518160CF446CE812C44CED82C15
:1007B00042CEC50169857A850E941604CB01770F68
:1007C000AA0BBB0B89839A83AB83BC83BC01CD018D
:1007D0000E94FC049B01AC017C8579831A830B8306
:1007E000FC8269817A818B819C810E945E046C8786
:1007F000172F082FF92E51CE41E158E0942EC52E27
:10080000A7CD81E196E0982EC92EA2CDDB018F9372
:100810009F930E943004BF91AF91A29F800D911DC4
:10082000A39F900DB29F900D1124089597FB072E62
:1008300016F4009407D077FD09D00E943B0407FC12
:1008400005D03EF4909581959F4F089570956195E0
:100850007F4F0895EE0FFF1F0590F491E02D09944E
:100860000E944F04A59F900DB49F900DA49F800DF2
:10087000911D11240895AA1BBB1B51E107C0AA1F9B
:10088000BB1FA617B70710F0A61BB70B881F991F31
:100890005A95A9F780959095BC01CD010895A29F26
:1008A000B001B39FC001A39F700D811D1124911D44
:1008B000B29F700D811D1124911D08955058BB27C2
:1008C000AA270E9476040C944E050E94400538F039
:1008D0000E94470520F039F49F3F19F426F40C9448
:1008E0003D050EF4E095E7FB0C943705E92F0E94D7
:1008F0005F0558F3BA17620773078407950720F05E
:1009000079F4A6F50C9481050EF4E0950B2EBA2F20
:10091000A02D0B01B90190010C01CA01A001112405
:10092000FF27591B99F0593F50F4503E68F11A16B1
:10093000F040A22F232F342F4427585FF3CF469542
:1009400037952795A795F0405395C9F77EF41F1664
:10095000BA0B620B730B840BBAF09150A1F0FF0F2E
:10096000BB1F661F771F881FC2F70EC0BA0F621F1A
:10097000731F841F48F4879577956795B795F7950A
:100980009E3F08F0B0CF9395880F08F09927EE0F9F
:100990009795879508950E94670588F09F5798F06E
:1009A000B92F9927B751B0F0E1F0660F771F881F74
:1009B000991F1AF0BA95C9F714C0B13091F00E948E
:1009C0008105B1E008950C948105672F782F882761
:1009D000B85F39F0B93FCCF3869577956795B395B5
:1009E000D9F73EF490958095709561957F4F8F4F24
:1009F0009F4F0895E89409C097FB3EF49095809529
:100A0000709561957F4F8F4F9F4F9923A9F0F92FD4
:100A100096E9BB279395F695879577956795B79552
:100A2000F111F8CFFAF4BB0F11F460FF1BC06F5F38
:100A30007F4F8F4F9F4F16C0882311F096E911C04A
:100A4000772321F09EE8872F762F05C0662371F06B
:100A500096E8862F70E060E02AF09A95660F771F7F
:100A6000881FDAF7880F9695879597F9089597F973
:100A70009F6780E870E060E008959FEF80EC089544
:100A800000240A941616170618060906089500246D
:100A90000A9412161306140605060895092E0394E7
:100AA000000C11F4882352F0BB0F40F4BF2B11F45B
:100AB00060FF04C06F5F7F4F8F4F9F4F089557FDBA
:100AC0009058440F551F59F05F3F71F04795880FBC
:100AD00097FB991F61F09F3F79F087950895121653
:100AE00013061406551FF2CF4695F1DF08C01616FF
:100AF00017061806991FF1CF8695710561050894B0
:100B00000895E894BB2766277727CB0197F90895C6
:100B10000E94FA0508F48FEF08950E94A0050C9436
:100B20004E050E94400538F00E94470520F09523AD
:100B300011F00C9437050C943D0511240C9482059A
:100B40000E945F0570F3959FC1F3950F50E0551F0C
:100B5000629FF001729FBB27F00DB11D639FAA2712
:100B6000F00DB11DAA1F649F6627B00DA11D661F61
:100B7000829F2227B00DA11D621F739FB00DA11D82
:100B8000621F839FA00D611D221F749F3327A00D3C
:100B9000611D231F849F600D211D822F762F6A2FD8
:100BA00011249F5750409AF0F1F088234AF0EE0F3D
:100BB000FF1FBB1F661F771F881F91505040A9F76A
:100BC0009E3F510580F00C9437050C9482055F3FE1
:100BD000E4F3983ED4F3869577956795B795F795A6
:100BE000E7959F5FC1F7FE2B880F911D969587951E
:100BF00097F90895990F0008550FAA0BE0E8FEEF4A
:100C000016161706E807F907C0F012161306E407D0
:100C1000F50798F0621B730B840B950B39F40A26C9
:100C200061F0232B242B252B21F408950A2609F4A7
:100C3000A140A6958FEF811D811D0895F894FFCFE7
:100C40009001A402B102BE02CC02DA02E702F40271
:0A0C500000030C0318032403310312
:100C5A000D0102030405080C1420252B334055808E
:100C6A00FF0204080C1014181C2024282C303438D5
:100C7A003C0100020003000400050008000C0014F7
:100C8A0000200025002B003300400055008000FFA3
:100C9A000016AE850198D99C013066B5017468CFFB
:100CAA000146F7EA01C3280802D816270237DC47AB
:100CBA000290936A02285C8F028054B602269EDF55
:100CCA00022D5C0B032D5C0B03F5B3390384C56A53
:100CDA0003ADD19E038DEED50386511004B12D4E7E
:100CEA0004ACB78F04E527D50451B81E0501A96CD9
:100CFA0005883BBF0597B7160697B716062667738A
:100D0A0006489AD5065AA33D0757DCAB070DA32020
:100D1A0008265C9C081B701F09074FAA09A3703D8F
:100D2A000A0252D90AD5777E0BA96D2D0CA96D2D11
:100D3A000C4DCEE60C9134AB0D3B487B0EAFB85749
:100D4A000F94444110D3B93811B0DE3E12949F5427
:100D5A001347E17A1412A7B2159DECFC1652DB5A1E
:100D6A001800002000400060008000A000C000E0E1
:100D7A000000012101410161018101A101C101E1DB
:100D8A000101022202420262028202A202C202E2BB
:100D9A000202032203430363038303A303C303E39C
:100DAA000303042304430464048404A404C404E47D
:100DBA000404052405440565058505A505C505E55D
:100DCA000505062506450666068606A606C606E63D
:100DDA000606072607460766078707A707C707E71E
:100DEA0007F707D707B7079707770756073607168C
:100DFA0007F606D606B6069606760655063506158B
:100E0A0006F505D505B50595057505550534051489
:100E1A0005F404D404B40494047404540433041389
:100E2A0004F303D303B30393037303530333031288
:100E3A0003F202D202B20292027202520232021188
:100E4A0002F101D101B10191017101510131011187
:100E5A0001F000D000B00090007000500030001087
:100E6A0000F0FFD0FFB0FF90FF70FF50FF30FF107F
:100E7A00FFF0FECFFEAFFE8FFE6FFE4FFE2FFE0F7E
:100E8A00FEEFFDCEFDAEFD8EFD6EFD4EFD2EFD0E7E
:100E9A00FDEEFCCEFCADFC8DFC6DFC4DFC2DFC0D7D
:100EAA00FCEDFBCDFBACFB8CFB6CFB4CFB2CFB0C7D
:100EBA00FBECFACCFAACFA8BFA6BFA4BFA2BFA0B7C
:100ECA00FAEBF9CBF9ABF98AF96AF94AF92AF90A7C
:100EDA00F9EAF8CAF8AAF88AF869F849F829F8097B
:100EEA00F819F839F859F879F89AF8BAF8DAF8FAEC
:100EFA00F81AF93AF95AF97AF99AF9BBF9DBF9FBCE
:100F0A00F91BFA3BFA5BFA7BFA9BFABCFADCFAFCAD
:100F1A00FA1CFB3CFB5CFB7CFB9CFBBDFBDDFBFD8D
:100F2A00FB1DFC3DFC5DFC7DFC9DFCBDFCDEFCFE6E
:100F3A00FC1EFD3EFD5EFD7EFD9EFDBEFDDEFDFF4F
:100F4A00FD1FFE3FFE5FFE7FFE9FFEBFFEDFFE002F
:100F5A00FF20FF40FF60FF80FFA0FFC0FFE0FF000F
:100F6A0000000010002000300040005000600070B7
:100F7A000080009000A000B000C000D000E000F0A7
:100F8A000000011101210131014101510161017189
:100F9A000181019101A101B101C101D101E101F177
:100FAA00010102110222023202420252026202725A
:100FBA000282029202A202B202C202D202E202F247
:100FCA00020203120322033203430353036303732C
:100FDA000383039303A303B303C303D303E303F317
:100FEA0003030413042304330444045404640474FC
:100FFA000484049404A404B404C404D404E404F4E7
:10100A0004040514052405340544055405650575CD
:10101A000585059505A505B505C505D505E505F5B6
:10102A00050506150625063506450655066506769E
:10103A000686069606A606B606C606D606E606F686
:10104A00060607160726073607460756076607766F
:10105A000787079707A707B707C707D707E707F756
:10106A000709F819F829F839F849F859F869F8799F
:10107A00F889F89AF8AAF8BAF8CAF8DAF8EAF8FA97
:10108A00F80AF91AF92AF93AF94AF95AF96AF97A7F
:10109A00F98AF99AF9ABF9BBF9CBF9DBF9EBF9FB68
:1010AA00F90BFA1BFA2BFA3BFA4BFA5BFA6BFA7B4F
:1010BA00FA8BFA9BFAABFABCFACCFADCFAECFAFC39
:1010CA00FA0CFB1CFB2CFB3CFB4CFB5CFB6CFB7C1F
:1010DA00FB8CFB9CFBACFBBCFBCDFBDDFBEDFBFD0A
:1010EA00FB0DFC1DFC2DFC3DFC4DFC5DFC6DFC7DEF
:1010FA00FC8DFC9DFCADFCBDFCCDFCDEFCEEFCFEDB
:10110A00FC0EFD1EFD2EFD3EFD4EFD5EFD6EFD7EBE
:10111A00FD8EFD9EFDAEFDBEFDCEFDDFFDEFFDFFAA
:10112A00FD0FFE1FFE2FFE3FFE4FFE5FFE6FFE7F8E
:10113A00FE8FFE9FFEAFFEBFFECFFEDFFEEFFE007C
:10114A00FF10FF20FF30FF40FF50FF60FF70FF805D
:10115A00FF90FFA0FFB0FFC0FFD0FFE0FFF0FF004D
:10116A00000000FF07FF07FF07FF07FF07FF07FF52
:10117A0007FF07FF07FF07FF07FF07FF07FF07FF35
:10118A0007FF07FF07FF07FF07FF07FF07FF07FF25
:10119A0007FF07FF07FF07FF07FF07FF07FF07FF15
:1011AA0007FF07FF07FF07FF07FF07FF07FF07FF05
:1011BA0007FF07FF07FF07FF07FF07FF07FF07FFF5
:1011CA0007FF07FF07FF07FF07FF07FF07FF07FFE5
:1011DA0007FF07FF07FF07FF07FF07FF07FF07FFD5
:1011EA0007FF07FF07FF07FF07FF07FF07FF07FFC5
:1011FA0007FF07FF07FF07FF07FF07FF07FF07FFB5
:10120A0007FF07FF07FF07FF07FF07FF07FF07FFA4
:10121A0007FF07FF07FF07FF07FF07FF07FF07FF94
:10122A0007FF07FF07FF07FF07FF07FF07FF07FF84
:10123A0007FF07FF07FF07FF07FF07FF07FF07FF74
:10124A0007FF07FF07FF07FF07FF07FF07FF07FF64
:10125A0007FF07FF07FF07FF07FF07FF07FF07FF54
:10126A000701F801F801F801F801F801F801F8019D
:10127A00F801F801F801F801F801F801F801F8019C
:10128A00F801F801F801F801F801F801F801F8018C
:10129A00F801F801F801F801F801F801F801F8017C
:1012AA00F801F801F801F801F801F801F801F8016C
:1012BA00F801F801F801F801F801F801F801F8015C
:1012CA00F801F801F801F801F801F801F801F8014C
:1012DA00F801F801F801F801F801F801F801F8013C
:1012EA00F801F801F801F801F801F801F801F8012C
:1012FA00F801F801F801F801F801F801F801F8011C
:10130A00F801F801F801F801F801F801F801F8010B
:10131A00F801F801F801F801F801F801F801F801FB
:10132A00F801F801F801F801F801F801F801F801EB
:10133A00F801F801F801F801F801F801F801F801DB
:10134A00F801F801F801F801F801F801F801F801CB
:10135A00F801F801F801F801F801F801F801F801BB
:10136A00F80000320064009700C900FB002D015FFD
:10137A00019001C201F301240254028402B402E37F
:10138A0002120340036E039B03C803F40320044BB9
:10139A000475049E04C704EF0417053D0563058818
:1013AA0005AC05CF05F10512063306520671068E05
:1013BA0006AA06C606E006F906110728073E0753DD
:1013CA0007670779078B079B07AA07B807C407D0DF
:1013DA0007DA07E307EA07F107F607FA07FD07FF47
:1013EA0007FF07FE07FC07F807F407EE07E707DE23
:1013FA0007D507CA07BE07B107A207930782077076
:10140A00075D07490733071D070507ED06D306B829
:10141A00069C067F066106430623060206E005BD12
:10142A00059A05750550052A050305DB04B3048AE8
:10143A0004600435040A04DE03B203850357032952
:10144A0003FB02CC029C026C023C020B02DA01A9E9
:10145A0001780146011401E200B0007E004B001938
:10146A0000E7FFB5FF82FF50FF1EFFECFEBAFE88C1
:10147A00FE57FE26FEF5FDC4FD94FD64FD34FD0510
:10148A00FDD7FCA9FC7BFC4EFC22FCF6FBCBFBA0A7
:10149A00FB76FB4DFB25FBFDFAD6FAB0FA8BFA6612
:1014AA00FA43FA20FAFEF9DDF9BDF99FF981F964E8
:1014BA00F948F92DF913F9FBF8E3F8CDF8B7F8A3D1
:1014CA00F890F87EF86DF85EF84FF842F836F82B87
:1014DA00F822F819F812F80CF808F804F802F801DA
:1014EA00F801F803F806F80AF80FF816F81DF826B6
:1014FA00F830F83CF848F856F865F875F887F8991E
:10150A00F8ADF8C2F8D8F8EFF807F920F93AF95621
:10151A00F972F98FF9AEF9CDF9EEF90FFA31FA54F9
:10152A00FA78FA9DFAC3FAE9FA11FB39FB62FB8BE6
:10153A00FBB5FBE0FB0CFC38FC65FC92FCC0FCEE46
:10154A00FC1DFD4CFD7CFDACFDDCFD0DFE3EFE7080
:10155A00FEA1FED3FE05FF37FF69FF9CFFCEFF0009
:02156A0000007F
:00000001FF
